:020000040000FA
:100000000002040000000000360300004E03000060
:10001000660300003E030000560300005E0300007C
:100020006E030000FC030000FC030000FC03000062
:10003000FC030000FC030000FC030000FC030000C4
:10004000FC030000FA0200009A030000FC03000019
:1000500030030000FC030000FC030000FC03000070
:10006000FC030000FC030000FC030000FC03000094
:10007000FC030000FC030000FC030000FC03000084
:10008000FC030000FC030000FC030000FC03000074
:10009000FC0300000C030000BE030000FC03000092
:1000A000FC030000FC030000FC030000E20300006E
:1000B000FC030000FC030000FC030000FC03000044
:1000C000FC030000FC030000FC030000FC03000034
:1000D000FC030000FC030000FC030000FC03000024
:1000E000FC030000FC030000FC030000FC03000014
:10031000FC030000FFFFFF00FFFFFF00FFFFFF00E7
:10032000FFFFFF00FFFFFF00FFFFFF00FFFFFF00D9
:10033000FFFFFF00FFFFFF00FFFFFF00FFFFFF00C9
:10034000FFFFFF00FFFFFF00FFFFFF00FFFFFF00B9
:10035000FFFFFF00FFFFFF00FFFFFF00FFFFFF00A9
:10036000FFFFFF00FFFFFF00FFFFFF00FFFFFF0099
:10037000FFFFFF00FFFFFF00FFFFFF00FFFFFF0089
:10038000FFFFFF00FFFFFF00FFFFFF00FFFFFF0079
:10039000FFFFFF00FFFFFF00FFFFFF00FFFFFF0069
:1003A000FFFFFF00FFFFFF00FFFFFF00FFFFFF0059
:1003B000FFFFFF00FFFFFF00FFFFFF00FFFFFF0049
:1003C000FFFFFF00FFFFFF00FFFFFF00FFFFFF0039
:1003D000FFFFFF00FFFFFF00FFFFFF00FFFFFF0029
:1003E000FFFFFF00FFFFFF00FFFFFF00FFFFFF0019
:1003F000FFFFFF00FFFFFF00FFFFFF00FFFFFF0009
:100400004F5721000EFF24000E018800000000005D
:10041000000020000000E000020032000001200087
:100420002002880014000700F50007000000E0002B
:1004300003003A0080DB21000100200002003700A9
:100440000000200001002000810F70000100320038
:100450000F000700000020000000E0000200320052
:100460000000020000000000C217020000000000AF
:100470000040DA000000FE00200820000000E0003C
:1004800002003200002020009001880000000600D9
:10049000A1028800800478000000EB001F003700F4
:1004A000E284440054A0B4009905BA00E2844400F8
:1004B00054A0B4009906BA00E284440054A0B400E9
:1004C0000006EB00476FDE00FD07B200AE018800BA
:1004D000636CE10003003A000AD801000000EB0061
:1004E0000E003700606CE10008003A00004DEB00A0
:1004F0000A05E800020039003420EC000AF0A000F0
:100500008B05E900F9FF3E00040037006168E10057
:10051000010032000086EB000B00070019C7BA008B
:100520000E04E0001905BA0003003A000A00E000DA
:10053000DBFF3A0000000600FE07B200AE028800B2
:100540008A047800F5FF37000CD0A300E20F4D00BD
:100550001C00390089027800354DBA000A05E80010
:10056000020039003420EC000AF0A0008B05E900FD
:100570000F003200254DBA000A05E80002003900DC
:100580003420EC000AF0A0008B05E90008003200DE
:100590000C00E0000600320015CDBA000A05E800A4
:1005A000020039003420EC000AF0A0008B05E900BD
:1005B0008984E80054A0B4000B00E000E2FF3A0098
:1005C000000006009902BA00055D78008B05E9007D
:1005D000F7FF3200C82ADE00055D78008B05E900D0
:1005E000F3FF32000C00E000F1FF320019DDBA0029
:1005F000EEFF3700809FBE00D05621001048E80073
:1006000011C0B3000000E9000148780000E8A9002B
:100610004F00BE00004006003600F800809FBE007C
:10062000829FBE00849FBE00869FBE00E30D070030
:10063000F05621001048E80011C0B3000000E900A6
:10064000014878000368A9004F03BE004F02BE00B6
:100650004F01BE004F00BE003600F900004006000A
:10066000180EA8000148A900004006003600F80056
:10067000C028A9000000EB005F0207003600F80068
:10068000C0522100800778007800400000018800F7
:10069000C048A90010002000570207003600F800EB
:1006A000C068A90020002000530207003600F800AF
:1006B000C088A900300020004F0207003600F80073
:1006C000C0A8A900400020004B0207003600F80037
:1006D000C608A90070002000470207003600F80095
:1006E000C508AB000D003A00C408E2000800350060
:1006F000C4A8AB0003003A00C488AB000A003A006B
:10070000FFFF3700C4A8A900900020003A020700AC
:10071000C5E8A9008000200037020700C508A9002D
:10072000C000200034020700C488A900A0002000F7
:10073000310207003600F800809FBE00829FBE0095
:10074000849FBE00869FBE00F8010700105721005D
:100750001048E80011C0B3000000E900014878002B
:100760000108A9004F03BE004F02BE004F01BE00AA
:100770004F00BE003600F900004006003600F800C9
:10078000809FBE00829FBE00849FBE00869FBE00E9
:10079000B50D0700305721001048E80011C0B30024
:1007A0000000E900014878000388A9004F03BE005B
:1007B0004F02BE004F01BE004F00BE003600F900E0
:1007C000004006003600F800809FBE00829FBE00F9
:1007D000849FBE00869FBE00D90107000428A9009F
:1007E0004F03BE004F02BE004F01BE004F00BE00CF
:1007F0003600F900004006000040DA000000FE006C
:100800000000050003F0A200889FBE008A9FBE0082
:100810008C1F7800F3000700FA0033006450E100F9
:100820004F0032006420E1005200320003826C006D
:1008300007003B000905D0000306D000820F5400DA
:100840000C065D00020039000200320089017800C8
:10085000030678008582550004003D000003FD007A
:100860008103FD008502EA008B854200840F72003F
:1008700002003B0060001000E08018006011B8002A
:100880000005EB007A28E1000A0039000600780034
:10089000C75DDD00F707B200878075002D003700C7
:1008A000828171000A017800610560008180D100B9
:1008B0000080D3008502E900F9FF3B0006044000F8
:1008C0008784480002003B0060041400E0841C00A0
:1008D0000988A300070032008A81710082817100BB
:1008E000610164008904D1000884D3008B05E8000D
:1008F000170037000978A30013003A000B00E0004E
:10090000130034008B05E9000804440089844C007E
:100910000A4474000978A3000D003A000B00E000BF
:10092000070034008B05E9000804440089844C006A
:1009300001003A000B0020000978A300F7FF320005
:100940000001EB0002003700828171000A0178008B
:10095000690007000CF0A70001F0A000B20037000A
:100960006420E10002003A00838F6C00B200330083
:100970000801BE000200BE00AB003700889FBE0029
:100980008A9FBE008C1F7800960007009D003300F0
:1009900003866C006450E1002E0032006420E10008
:1009A000330032006150E1002F0032006120E1008D
:1009B0003100320085855500EB07B00009002000AA
:1009C00008042000050037000804440089844C0016
:1009D0000A0031000603430087834B0000015300E7
:1009E00081815B00F8FF33000203BE000800A00015
:1009F0000804440089844C00F6FF3900C639DD0044
:100A00008301730001003200130020008904D1002B
:100A10000884D3000998A300050032000800A7004D
:100A20000300A0008904D1000884D3008B05E800EE
:100A30008904D1000884D3000001EB000281D200B8
:100A40002D00070001F0A1000CF0A70001F0A000AC
:100A5000750037006420E100770032000801BE0015
:100A60000200BE00F7FF37006120E1007200320093
:100A70006000B800F3FF37000000200001F82700F5
:100A8000F0FF37000001BE00410007000470A7001E
:100A900003F0A10003F8A30013003A006509B100B8
:100AA00010003200090035006928E100020035001D
:100AB000010028000000050000004000818048007F
:100AC0008502E900FCFF3A0000000600F88F4200B2
:100AD000050035008100D1000080D3008502E800C8
:100AE000FCFF3A00000006008000EB00000005005B
:100AF0006011B80087003700810020006180550038
:100B00000B003D000B00200061FE2F000100E10002
:100B10001D00340082817100610164008904D100EC
:100B20000884D3000000E800FAFF3A0071002000BA
:100B300061006400030070000200600009003200E0
:100B400061044400E0844C000988A50005003200DF
:100B50008B05E8006808E10002003A008904D10032
:100B60000884D300F20F20000258E10005003D0088
:100B7000C75DDD00F907B2008980750008007800C4
:100B8000000006000BF827008B007800000005002D
:100B9000C70ADE00F107B200F50FB200080032000C
:100BA000E1CF4200020032000170A00024000500E5
:100BB000810F7000010032000408050044000500A8
:100BC000810F700002003A00140005008502E90060
:100BD0000000400081C04800FCFF3B000170A00005
:100BE000240005000004BE00E9FF07000003BE006A
:100BF0000405BE000200BE00E5FF0700844F75003B
:100C0000000006000200BE006450E100050036004E
:100C10006420E100020036000968A30001003A00E8
:100C20000800BE000160A0004F0678004F05BE001E
:100C30004F04BE0000000600F0FF2F00F1FF270068
:100C4000F9FF3700889FBE008A9FBE008C1F780086
:100C5000E4FF0700EBFF330003866C006450E10003
:100C6000240032006420E100270032006150E100DE
:100C7000220032006120E100210032008B85420019
:100C8000EB07B1000134B800003AB8000804420094
:100C900089844A00013AB8000030B80088804000DA
:100CA00009014A0004003300000040008180480030
:100CB000020149008B05E900C909DD0083017000CC
:100CC0000100320013002000C814DE004814DD00CB
:100CD0004709DE001200B200C808DE000884700078
:100CE00085FF070001F0A1000CF0A70001F0A000B3
:100CF000CDFF37006120E100CFFF32000801BE00C8
:100D00000200BE00F7FF37006150E100FCFF3A002F
:100D1000C9FF3700889FBE008A9FBE000082700016
:100D20000402710004827100260032000004BE003B
:100D30000200BE006011B8006B092000950220007F
:100D40000182CF000A0039000541B1000082CF00C6
:100D5000070039000541B1000982CF0004003900C5
:100D60000541B1000882CF00010039000541B10002
:100D700005425200120032000A003B0082817100DD
:100D8000610164008100D1000080D3008984D30018
:100D90000884D3008B05E8000442E800F7FF3A001E
:100DA000070037000804440089844C000000480014
:100DB000818048008B05E9000442E900F9FF3A0010
:100DC0004DFF07004F05BE004F04BE0000000600A7
:100DD0002D2D00002D2D00002D2D00002D2D0000AB
:100DE000436100006C3A000020320000352500000D
:100DF0000020000020200000202000002020000013
:100E00002031000032330000343500003637000056
:100E1000380000002A000000436100006C3A000026
:100E2000203200003525000000430000616C000006
:100E30003A2000003530000025000000436100002A
:100E40006C3A000020370000352500000043000008
:100E5000616C00003A3100003030000025000000D5
:100E600053610000766900006E6700002E2E0000BE
:100E700000410000626F000072740000696E0000A3
:100E80006700000048550000492000004144000070
:100E90004441000076650000722E00002031000001
:100EA0002E310000004C000043440000206F000081
:100EB000666600002052000065730000756D00003A
:100EC000653F0000200000002D0000002000000011
:100ED0002B0000000A21EF0010132000700888008A
:100EE00000002800900888000108A9002108A80037
:100EF000005721000048EB00000006007008880041
:100F0000005721000048EB00000006007008800038
:100F10000000060050088800005721000048EB0040
:100F200000000600500880000000060013E1A90040
:100F30002108A90018CEA8001A70EF0000000600D2
:100F4000005721000048EB002108A80013E1A80089
:100F50000000060013E1A9002108A9000000060016
:100F600001572100114078000004E0000100320028
:100F70008048EB0000000600105721001080FB00A5
:100F800000000600105721000048EB00000006009A
:100F9000F0F82F005008B6000050A00080428800F2
:100FA000F08F2F004408B6000090A0002042880077
:100FB00081FF2F0072428000028060000000A000CC
:100FC00070428800F0FF2800634280000301600047
:100FD00002C0A0006242880022428000828060003D
:100FE0000100A000214288004208B60000C0A00015
:100FF000104288000000060050818800FFFF370083
:10100000C44200009A85000074C80000FFFF000081
:10101000F5410000D582000079C60000FFFF000006
:10102000CA4400007487000038C90000FFFF0000B8
:10103000644300005F85000068C90000FFFF0000F6
:10104000FE42000002840000B5C60000FFFF000061
:1010500030410000178100002CC50000FFFF000098
:101060006A3F0000B3800000F5C40000FFFF0000ED
:101070000D420000C88300009BC60000FFFF000077
:101080000000000000000000000000000000000060
:101090000000000000000000000000000000000050
:1010A0000000000000000000000000000000000040
:1010B0000000000000000000000000000000000030
:10200000180EA900990537000400FA00889FBE0049
:102010008A1F78000004BE00020578001A50E20012
:1020200005003200E001200001002000C907070080
:102030001A50E200FBFF3A0010C0B3001AF0B700DC
:10204000B9BF9F00C8BF9F0018CEA9000A01780041
:10205000410020006A805700F80507004F0578000E
:102060004F04BE000080FA00000006000200FA00E3
:10207000180EA9000F81E90021002000C0512100A5
:102080007A0507001C30EF00220707000080FA00E5
:10209000000006000200FA00881F78008000EB00B4
:1020A000E1BF9F0000004000C15121000104400039
:1020B000180EA90064815700210020000800780054
:1020C0006A05070000BE200001002000A1070700EC
:1020D000180EA90064815700210020000800780034
:1020E0006205070000132000010020009907070087
:1020F0006FB897004F0478000080FA0000000600D7
:1021000000014000C34A2100028141004200DD007D
:102110001200400000004000C34621000080410042
:10212000010878001200E800630960000000060062
:10213000889FBE008A9FBE008C1F78000004EB00C1
:102140000005EB008004EB004206DD00CB462100D9
:1021500008004600000040000080450010007800A4
:102160008000EB0062FA07000001BE008A027800DE
:10217000090278000500780084007800A2F90700C1
:1021800000057800810478000804E800E40F54009A
:10219000EFFF3A000200200003E823008A027800E3
:1021A000090278000500780084007800A5FA07008D
:1021B00034FA07004F0678004F05BE004F04BE00FA
:1021C00000000600889FBE008A9FBE008C9FBE0054
:1021D0008E1F78000004780088044400C04B210062
:1021E00009004000100078000050E2000E003200AC
:1021F000C24A2100090141004246DD009201460029
:10220000CB4621008381410083814500800978000D
:102210009201E8006389610081005000D2F92F002B
:10222000828F50004C003D000000E0002D00320085
:102230004344DD00C14D2100088540009A0F500045
:10224000300039009A0F10007D0032008885E800C8
:102250008B8540009B0F50005F0039009B0F1000E2
:102260009B003200640544000A8540009A0F50002C
:102270007D0039009A0F1000A80032006604440067
:1022800008844000980F50009B0031001A00500055
:102290008000EB0016FA070002C02F00F36724004D
:1022A00068FA0700000678008105780018047800B5
:1022B0001A0054008000EB000DFA07000001BE0078
:1022C0008C0278000B02780005007800840078000A
:1022D000AAF9070002F02F00F37324004AF907005F
:1022E000E8F90700C14C210089844000800C780087
:1022F0004F0778004F06BE004F05BE004F04BE00DA
:10230000000006008000EB00F9F9070002C02F0072
:10231000F36724004BFA0700800578000104780079
:102320001A0078008000EB00F1F907000001BE0000
:102330008B0278000802780005007800840078009D
:102340008EF90700CFF90700C14C210089844000B5
:10235000800C7800E6FF370032062000828F5000A4
:10236000B1FF3C000007EB008006EB000005EB002E
:102370000A00460000004000008045001000780080
:102380008000EB00DAF907000001BE008E02780041
:102390000D02780005007800840078001AF9070023
:1023A00000077800810678000A05E800E40F550070
:1023B000EFFF3A000200200003E823008E027800BD
:1023C0000D02780005007800840078001DFA0700EF
:1023D000ACF9070094FF37001A0050008000EB00B2
:1023E000C3F9070002C02F00F367240015FA0700A5
:1023F00000067800010478009B0578001A805500DB
:102400008000EB00BAF907000001BE008C027800E2
:1024100008027800050078008400780057F907006A
:1024200002C02F00F3672400F7F8070095F90700B2
:10243000C14C210089844000800C7800ACFF37003B
:10244000C04C210089044000F0FF2300800C78007C
:102450004F0778004F06BE004F05BE004F04BE0078
:1024600000000600A7FF37001B0050008000EB00B3
:102470009FF9070002C02F00F3672400F1F907005D
:1024800000067800010478001A0578001B0055004A
:102490008000EB0096F907000001BE008C02780076
:1024A00008027800050078008400780033F90700FE
:1024B00002E02F00F36F2400D3F8070071F9070042
:1024C000C14C210089844000800C780088FF3700CF
:1024D000C04C210089044000F0FF2700800C7800E8
:1024E0004F0778004F06BE004F05BE004F04BE00E8
:1024F0000000060083FF3700C04C21008904400023
:10250000808CEB004F0778004F06BE004F05BE00E1
:102510004F04BE00000006007AFF3700C04C2100C7
:1025200089044000F0FF2B00800C78004F077800F2
:102530004F06BE004F05BE004F04BE00000006005F
:1025400070FF37000428A9002428A8000001EB0030
:102550001080800021808000ABFE07000001EB00AE
:102560005080800061808000A7FE0700700020007E
:10257000F0808800044EA9000000060000017800E9
:10258000014378006000B800610363004933DD0057
:10259000EF016100E1826100C42ADD0086827200E1
:1025A000441ADD000402B20085027200441ADD0004
:1025B0000404B20005027200C319DE00C719DD0071
:1025C0008480710002014100C34C2100028141005E
:1025D00012017800610261004422DD008001780070
:1025E0000340A10003027200C411DD000302B20027
:1025F0000450A100848171004412DD000404B20083
:102600000360A10003027200C411DD000308B200E0
:102610000470A100848171004412DD000410B20036
:102620000380A10003027200C411DD000320B20088
:102630000490A10084817100C612DE00E182620074
:10264000CA2ADD0003A0A100838172004712DE00C8
:10265000610262004B22DD0003B0A1008301720021
:102660004812DE00610262004C22DD0003C0A100BE
:10267000830172004912DE00610262004D22DD001A
:1026800003D0A100830172004A12DE0061026200E1
:102690004E22DD0003E0A100830172004B12DE0038
:1026A0004F22DD0003F0A10003007200CC11DE0018
:1026B000E1816100010278000400A10084817100C1
:1026C0004C12DE00620262000310A100830172005E
:1026D0004C12DE00640262000320A100830172003C
:1026E0004F11DE004311DD000330A10083007100B3
:1026F0000001EB0044FE3700889FBE008A9FBE00A9
:102700008C0507000004E00003003A004F05BE00FE
:102710004F04BE000000060083050700E88080002B
:102720000804E80067046400E08080008000400046
:10273000C04B21008100400091047800E1808000BE
:102740008180400000814000180EA90088004400EC
:10275000C05121000080400021002000C303070079
:102760006C050700E080800000004000CA4C21009A
:102770000000450090057800E08080008900780026
:1027800090FE0700E080800000004000000545004A
:102790009A8455000D003A002050E20006003200F5
:1027A0000900E0000F003400E1808000427628003C
:1027B0000000EB000B010700E88088004F05BE0019
:1027C0004F04BE0000000600D3FF3700E080800009
:1027D0008040EB0069FF07002050E200F6FF320066
:1027E000EFFF37000900E00006003A00E1808000BA
:1027F000627628000000EB00FA000700E8808800FD
:10280000EEFF3700E1808000827628000000EB00B8
:10281000F4000700E8808800E8FF37009B05070008
:102820000004E00001003A000000060094050700E3
:10283000044EA900E001200001002000C5050700AA
:10284000044EA800890537000080FB002050E200FC
:102850001D0032000104E0001C0032004401DE00D3
:10286000610161004A11DD00C170800001A0A1007A
:1028700081007100C17088004501DE0061016100C6
:102880004B11DD00C170800001B0A100810071001A
:10289000C17088004601DE00610161004C11DD005D
:1028A000C170800001C0A10081007100C17088006A
:1028B0004700DE004D00DD00C170800001D0A100A6
:1028C00081007000C1708800000006006101600096
:1028D0004A11DD00C170800001A0A10081007100DB
:1028E000C17088000001D100610161004B11DD0061
:1028F000C170800001B0A10081007100C17088002A
:102900004201DE00610161004C11DD00C1708000F8
:1029100001C0A10081007100C17088004300DE0089
:10292000610060004D00DD00C170800001D0A10099
:1029300081007000C170880000000600881F7800C8
:102940002050E20002003A004F0478000000060028
:10295000230507000004E000FBFF32001D0507000F
:1029600019CEA9001750E20030003A001850E200DA
:102970002E003A001650E2000F003A00C054210029
:102980002210B40090407800C05521002210B400FD
:1029900090CF50005C00320010818000E70F5000A3
:1029A00005003600A08080002210E3000200320003
:1029B00010C0B30012F0B7001250E2000C00320059
:1029C00010818000E70F500045003E00118180001B
:1029D00000C8B30000C0400024F0B70010C0B3002E
:1029E00016F0B7001270EF002210F8001410F90072
:1029F0001650E2003000320024D0BF0011C0B300F6
:102A000091FF070019EEA90019CEA80010C0B3006D
:102A100017F0B7001850E200230032001870EF00E2
:102A20004F04780000000600C9FF37001750E2008D
:102A3000F8FF32001650E2000800320024D0BF0038
:102A40008040EB0080FF070019EEA9001670EF0030
:102A500019CEA8001770EF00EEFF3700108180003C
:102A6000C854210000004400104078008040EB0072
:102A700075FF070019EEA800108180001181800009
:102A800001044400C155210000804000184878002E
:102A90002210EC006F0060001081880019CEA800A1
:102AA0001770EF00DBFF3700C50407004F04780004
:102AB00000000600A6FF3700C05421002210B40019
:102AC0001040780011C0B3005FFF070019EEA800A6
:102AD00019CEA80010C0B30017F0B700CDFF370023
:102AE0001181800080CBB30000C0400024F0B7000B
:102AF00010C0B30016F0B7001270EF002210F800FB
:102B00001410F900BAFF37002210EC006F006000CB
:102B10001081880010C0B30012F0B700A8040700AD
:102B20004F0478000000060089FF37002050E200C3
:102B300001003A000000060019CEA800004C200059
:102B4000010020000305070019CEA90000000600BF
:102B5000881F7800004478002050E20002003A000C
:102B60004F0478000000060011C0B3000840780050
:102B700035FF070019EEA900ECFF07008040EB00CD
:102B80000840780030FF0700E8FF070019EEA800B2
:102B90004F04780000000600F3FF3700881F78001C
:102BA000004478002050E20002003A004F04780010
:102BB0000000060011C0B3000840780022FF0700A3
:102BC00019EEA800D9FF07008040EB00084078000C
:102BD0001DFF0700D5FF07004F0478000000060026
:102BE000F4FF3700924178000304E0001000320047
:102BF000C5542100E78F5000020034000000E800B7
:102C0000E8801000E10F500009003C004302DD00A5
:102C10000102420004824200034A7800D241780057
:102C20000304E000020032008100E800F1FF3700F9
:102C300000000600E4874700889FBE008A9FBE0010
:102C40008C9FBE008E1F78000004BE002050E20062
:102C500006003A004F0778004F06BE004F05BE0041
:102C60004F04BE004F00B1000000060010C0B300CA
:102C700018F0B7008040EB000140780082BF9F0051
:102C8000290007000FB997000800BE00D5FF070014
:102C900000C8B300AEFF0700190020000004EB00DD
:102CA000CC542100CB552100E8064600688745003A
:102CB000E80F54000B003200080546001A40780067
:102CC000B6FF0700088045001A487800EF8F5400CF
:102CD0000C003C000804E8008904E800E80F5400F8
:102CE000F5FF3A0000CCB30099FF07001D407800C3
:102CF000AAFF07001D4F78000804E8008904E800D7
:102D0000F6FF37001870EF002D0407004F0778001A
:102D10004F06BE004F05BE004F04BE004F00B1007D
:102D200000000600D1FF3700889FBE008A1F780090
:102D3000004578000144780019C0B30080012100EB
:102D400009487800194EA900196EA900198EA9002A
:102D500019AEA90019CEA90019EEA90020E3280098
:102D6000210120007B0407008940780000C3B300E4
:102D7000B5FE0700601C2500210020007504070037
:102D80006AFF0700003021000100200071040700E5
:102D900066FF070000302100010020006D040700DD
:102DA00062FF0700003021000100200069040700D5
:102DB0008940780000C2B300A3FE07005BFF070054
:102DC00080C2B30062FF070000C1B30060FF0700CC
:102DD000C0C0B3005EFF070060C0B3005CFF070027
:102DE0000A04E00012003A00F00020001081880080
:102DF0001270EF001670EF0000C8B30024F0B700A7
:102E00001770EF000804E00003003A004F05780057
:102E10004F04BE00000006001870EF00E803070032
:102E20004F0578004F04BE0000000600FAFF37008F
:102E3000227428006000B8007EFF0700202E2E00BC
:102E4000F11C200043040700F000200010818800DE
:102E50001270EF001670EF0000C8B30024F0B70046
:102E60001770EF000804E000E8FF3200EAFF3700C7
:102E70002050E300080032000004E00007003200A8
:102E8000D403070011C0B3000002210001487800FC
:102E900001407800A4FF07000000060010C0B30046
:102EA00018F0B7008040EB00014078009EFF07005B
:102EB000327528006000B8005EFF07002070EF0048
:102EC0000000060010C0B30018F0B7000000EB00CF
:102ED000C354210002C2B3008080410082487800C0
:102EE0000000E800F00F5000FBFF3A0010C0B300F4
:102EF00017FF07001870EF00B103370011C0B300CF
:102F000082012100014978000004E00004003A0039
:102F1000C0C0B3000EFF07001870EF00A803370011
:102F2000F0C0B3000AFF07001870EF00A4033700D9
:102F3000FBFF370010C0B30018F0B7000000060018
:102F40001870EF009E0337008001EB00C4062100DB
:102F500002042000C718DD008180E90081004200E2
:102F60000000EB008028EB000000E800820F50001A
:102F7000FCFF3A008301E800E88F5100F5FF3A00BA
:102F800000000600E8874700889FBE008A9FBE00B9
:102F90008C9FBE008E1F7800B3020700180EA80099
:102FA00018CEA8000040EB00C0EF9F000004EB002B
:102FB0000007EB008EBF9F00FEB79F00CD062100EB
:102FC00030818000E10F500011003200E10F50000D
:102FD0001C0031008040EB0010C0B30052FF07001E
:102FE00022FC070057FD070001022000C04D210010
:102FF0001A0207000040EB009DFF070010002000B0
:103000003081880030818000E10F5000EFFF3A00EE
:10301000020EAB006B003A00FFB097008100E800A1
:10302000F1B79F00022EAB0059003A000FB897008D
:103030000000E80080BF9F00AFFD07003FFE0700D3
:10304000DFFF3700E20F5000DDFF3A000E0078008E
:1030500010FC0700C670DD008880400081804000C1
:1030600081804600800878000804E800F003200012
:10307000800F540032003600C775DD008B85E900F3
:10308000C0062100808545000004EB000005EB0030
:103090008004EB000C0420005B0078008000EB0053
:1030A00093F607000001BE000A027800890078004C
:1030B00004037800810378000600BE00D2F5070003
:1030C00000057800810478000804E8008C0F5400A3
:1030D000F1FF3A0028D0BF000080FB004274DD0001
:1030E0000004440008044400C10221000884400098
:1030F0000200200003C823000A027800890078003B
:1031000004037800810378000600BE00CDF60700B6
:103110005CF60700000C7800A27028008E00780092
:103120000000EB00AFFE070028D0BF00E34F5000C7
:103130000F0032000E07E800670767000004EB008D
:10314000022EAB0069003A008FB997008301E800B6
:1031500083BF9F00020EAB0037003A00FFB097001C
:103160008100E800F1B79F00F4FD070094FF3700ED
:10317000E70F5700EFFF3A0012C0B300C2EF9F0005
:103180000E07E800670767000004EB00ECFF37005C
:10319000400620008FB89700808F500081003600D5
:1031A0002050E200840032000040EB0030FF0700B6
:1031B0000001EB0082BF9F004FFD0700DFFD07000D
:1031C0007FFF3700803E20007FB19700800F5100C5
:1031D0006D00360020002000308188002870EF004C
:1031E0008001EB0002042000C718DD008180E900A7
:1031F000818046000000EB008028EB000000E80022
:10320000820F5000FCFF3A008301E800E88F510074
:10321000F5FF3A00826E28006000B80085FE0700C6
:103220008041EB00C3EF9F000004EB000007EB00C0
:10323000FEB79F007BFF3700803E20007FB19700E4
:10324000800F510053003600CFE997000304E000DF
:103250006300320010002000308188002870EF00E9
:10326000027328008000EB0072FE0700C0022100FC
:103270008000EB004309DD00C44D21000201420043
:10328000820178009019780010029000840978007B
:10329000A0019000230198003002900034019800B2
:1032A0008100E80068004000E88F5000F1FF3A001C
:1032B0008401070001022000C04D21009B0107008E
:1032C000202E2E00F11C200022030700926F280000
:1032D0006000B80057FE07000000EB0080BF9F00B1
:1032E000F0B79F0095FD070035FF3700400620002E
:1032F0000FBA9700800F5200200036008102210093
:10330000914078008100E800E380600082022100A3
:1033100001497800E2CF50004F003200E3CF500067
:1033200046003200E1CF50003D003200C27028005C
:103330008000EB00100020003EFE07008001EB0043
:1033400002042000C718DD008180E900818046006A
:103350000000EB008028EB000000E800820F500026
:10336000FCFF3A008301E800E88F5100F5FF3A00C6
:103370000000EB0080BF9F0076FF37000002EB00EB
:1033800084BF9F0073FF37000002EB00F4B79F007B
:1033900024FF37008000EB00F1B79F0067FD0700B6
:1033A00007FF37000002EB0084BF9F00D2FC07003C
:1033B00062FD070002FF370010C0B300ACFE07003B
:1033C000926F28006000B8001AFE07008001EB0031
:1033D00083BF9F00C8FC070058FD0700F8FE3700B8
:1033E00010002000308188002870EF0092732800C0
:1033F0008000EB000FFE0700202E2E00F11C2000A5
:10340000D4020700926F28006000B80009FE070090
:103410000000EB0080BF9F00F0B79F00B1FF3700B6
:10342000527128008000EB001000200001FE070010
:103430008001EB0002042000C2FF370072722800F6
:103440008000EB0010002000FAFD07008001EB0077
:1034500002042000BBFF3700E27128008000EB006F
:1034600010002000F3FD07008001EB0002042000A3
:10347000B4FF3700A0632000101288001000200065
:103480002012880040012800001288000148A9008D
:103490002148A800000006004022AB00FEFF3A00D1
:1034A0004342AB0009003A001080FB004012880044
:1034B00040A2AB00FEFF3A004342AB0008003A00D6
:1034C000401280008048780000000600100078005C
:1034D0004012880040A2AB00F5FF3A00F6FF37002B
:1034E0004012800080087800000006000400FA0006
:1034F000881F78008001EB00D3BF9F00E3BF9F00CF
:103500004342AB0040003A008002EB00160020006E
:103510000000E0004100320006047800000278005C
:103520000200E000410032004022AB00FEFF3A0002
:103530000000EB008001EB000100E000130032000E
:10354000E78F510007003E00E18F52002300320058
:103550009483FB0047128800080242000000E80044
:103560008301E80040A2AB0006003A00E18F520060
:10357000150032004712800007497800060141001B
:103580008301E900808F5000EDFF3E000300E00062
:103590000A00320040A2AB00FEFF3A00E18F520069
:1035A00014003200411280000149780006014100F8
:1035B0008301E9000300E000F6FF3A004F047800C1
:1035C0000080FA000000060047128000070978001A
:1035D000060141008301E900EAFF37009403780007
:1035E00047128800080242000000E8008301E8005A
:1035F000DCFF37004112800001097800060141001C
:103600008301E900EBFF37008100D10015002000A5
:10361000260020000000E000BFFF3A00648257004F
:103620000004EB000200E000BFFF3A006681570093
:103630000003EB004022AB00BBFF3A00BCFF3700A9
:10364000E68747008E1F780066875700002F7800B6
:10365000E68057000E0078008FFF07005FB89700E4
:103660004F0778006F00B100000006009FFF370091
:10367000004020004202B6000000EA004F00DE00D9
:10368000000006000012800000000600A043200099
:1036900010138800100020002013880080012800EB
:1036A00000138800000006006022AB00FEFF3A0015
:1036B0006342AB0009003A001080FB004013880011
:1036C00060A2AB00FEFF3A006342AB0008003A0084
:1036D0004013800080487800000006001000780049
:1036E0004013880060A2AB00F5FF3A00F6FF3700F8
:1036F000401380008008780000000600E68747003D
:103700008E1F78008001EB00D3BF9F00E3BF9F00B6
:103710006342AB0030003A008002EB00170020004B
:103720000000E0003100320007037800000278005A
:103730000200E00031003200020778006022AB0096
:10374000FEFF3A000000EB000100E0001400320030
:103750008001EB00E78F510007003E00E18F52002F
:10376000170032001481FB00421388000602420059
:103770000000E8008301E80060A2AB0006003A0008
:10378000E18F52000900320042138000024F78009E
:10379000070747008301E900808F5000EDFF3E00DE
:1037A0004F0778006F00B100000006004213800050
:1037B000020F7800070747008301E900F6FF370092
:1037C0001401780042138800060242000000E8005D
:1037D0008301E800E8FF37008100D10015002000D8
:1037E000270020000000E000CFFF3A00648257006D
:1037F0000003EB000200E000CFFF3A0066875700AD
:103800008003EB006022AB00CCFF3A00CDFF370015
:10381000E68747008E1F780066875700002F7800E4
:10382000E68057000E0078009FFF07005FB8970002
:103830004F0778006F00B10000000600AFFF3700AF
:10384000004020006202B6000000EA004F00DE00E7
:10385000000006000013800000000600C3E8A90075
:10386000000000000000000002102000A2028800FA
:10387000818040004240A9000E00340003802000F7
:1038800003A0A1000001EB009302BA001383BA0069
:10389000020278000400A100040240004833DD0069
:1038A000050A43008381E8000281E800810F51008E
:1038B000F5FF3500C3E8A80000000000000000008C
:1038C00000000600C3E8A90000000000000000009E
:1038D00000102000603988000080200000A0A100B6
:1038E0005039880030002400403988000600FC0070
:1038F0005005200070398800A00A20007039880027
:1039000029E7A800000000000000000001002800D6
:103910004239800002806000FDFF3A00C3E8A80041
:103920000000000000000000000006002F10B000A2
:103930008E1F7800C3E8A90000000000000000000E
:103940000F0178002210B1007F0009000019EB0080
:10395000018140004240A90014003400EEEF2F0026
:103960000F07470021F02F008F8040000201E9007F
:103970008201D100C219DD00838140000001EB000B
:10398000300F78001207980001077800838F5000ED
:1039900006003200E4804000300F780012079800E3
:1039A00001077800838F5000FAFF3A00E0EF2F0004
:1039B0000F00400080398800001020006039880026
:1039C0000080200000A0A1005039880020002400C1
:1039D000403988002927A9000600FC005005200076
:1039E00070398800A00A20007039880029E7A800F3
:1039F00000000000000000000100280042398000A3
:103A000002806000FDFF3A00C3E8A800000000004B
:103A1000000000004F0778002F10B10000000600E2
:103A2000710520000001EB006004200023742000D9
:103A3000804978008149780082497800001023008D
:103A4000203A88004827EF004E27EF0000042000AE
:103A5000303A88004420A90044C0A90044E0A900ED
:103A60004480A9000000060014010700ECFF0700D5
:103A700047F507007FFE070004FF070015F5070064
:103A8000B80007008C000700E1000700C3E8A800A9
:103A90000000000000000000200F20004400B600DD
:103AA0000050A0002002880000000600003A8000BC
:103AB00000000600003A80000000E0001100350020
:103AC00000E8A3000100320041C7A9000098A3004C
:103AD000010032004127A9000078A3000100320054
:103AE00040E7A9000068A3000100320040C7A90018
:103AF0000048A30001003A00000006004087A9002A
:103B00000000060041E7A900EDFF37004F00DE008E
:103B10000000060001002400010060000000EA002F
:103B20004F00DE00000006004900DE00610060007A
:103B3000000006004700DE00610060000000060093
:103B40004600DE0061006000000006004400DE0068
:103B500061006000000006000080EA004007B60037
:103B6000003A8800000006004027EF000000060031
:103B70006C15000002000000800000006E150000BF
:103B800002000000800000002C1500002000000052
:103B9000800000002A1000000200000082000000E7
:103BA000FFFF000070150000020000008000000010
:103BB0007215000002000000800000002C100000C0
:103BC00040040000800000002610000004000000F7
:103BD00080000000DC1400005000000082000000A3
:103BE000FF3FFF007FFFBF00FFFFFF003FFF7F00A1
:103BF000FFBFFF00FFFF3F00FF7FFF00BFFFFF0091
:103C0000FF3FFF007FFFBF00FFFFFF003FFF7F0080
:103C1000FFBFFF00FFFF3F00FF7FFF00BFFFFF0070
:103C2000FF3FFF007FFFBF00FFFFFF003FFF7F0060
:103C3000FFBFFF00FF00840000C400009400D40018
:103C400000A40000E400B40000F400006C140000C4
:103C50007000000080000000001000001200000052
:103C600082000000010001000000080000000000C8
:103C700008FF000000068000030004001A10000086
:103C800006000000800000004C150000200000002D
:103C900080000000201000000600000082000000EC
:103CA00001000F000080000012100000080000005A
:103CB00080000000000000000621EF00300120001D
:103CC00060088800000128008008880000E8A9003A
:103CD00020E8A900C05621000048EB0000000600C3
:103CE00060088800C05621000048EB000000060074
:103CF000600880000000060030088800C0562100DF
:103D00000048EB00000006003008800000000600BC
:103D100000000600C05621000048EB0020E8A80083
:103D200011E1A8000000060011E1A90020E8A900A7
:103D300000000600C1562100114078000004E00098
:103D4000010032008048EB0000000600D056210040
:103D50001080FB0000000600D05621000048EB0058
:103D6000000006001421EF0080042000D008880025
:103D700000022800F00888000368A9002368A80052
:103D8000E05621000048EB0000000600D008880043
:103D9000E05621000048EB0000000600D00880003B
:103DA00000000600A0088800E05621000048EB0053
:103DB00000000600A00880000000060000000600C9
:103DC000E05621000048EB002368A8001FE1A8008E
:103DD000000006001FE1A9002368A90000000600FA
:103DE000E1562100114078000004E000010032009B
:103DF0008048EB0000000600F05621001080FB0018
:103E000000000600F05621000048EB00000006000C
:103E10001821EF0040012000E00888000001280080
:103E2000000988000388A9002388A90020572100E1
:103E30000048EB0000000600E00888002057210041
:103E40000048EB0000000600E008800000000600CB
:103E5000C0088800205721000048EB000000060041
:103E6000C008800000000600000006002057210066
:103E70000048EB002388A80021E1A800000006000C
:103E800021E1A9002388A900000006002157210094
:103E9000114078000004E000010032008048EB008F
:103EA00000000600305721001080FB0000000600D3
:103EB000305721000048EB0000000600042EEF0000
:103EC000182EEF003001200000708800C02820006C
:103ED000A07088000C2EEF00202EEF003000200094
:103EE000507088001E2EEF00062EEF001A2EEF00F5
:103EF0000E2EEF00222EEF00F00B20004207B6003E
:103F0000610420007205200023742000814978009C
:103F10008249780080497800F00F2C007206B600C4
:103F200000B0A0009033880000FC2F007206B6009D
:103F30009000B30090338800103A80000060A00029
:103F400023742000814978008249780080497800F4
:103F500000000600F03FB1000180B100060035000E
:103F6000EE03090000000000403FB1000180B100F5
:103F7000FBFF3D001000B000203FB0000200350004
:103F8000008009000000000000000600FFFFFF00A5
:103F9000FFFFFF00FFFFFF00FFFFFF00FFFFFF002D
:103FA000FFFFFF00FFFFFF00FFFFFF00FFFFFF001D
:103FB000FFFFFF00FFFFFF00FFFFFF00FFFFFF000D
:103FC000FFFFFF00FFFFFF00FFFFFF00FFFFFF00FD
:020000040005F5
:10572000FFFF0000FFFF0000FF7F0000FFFF000001
:10573000F9FF0000FFFF0000BBFF0000FFFF0000BB
:105740009FFF0000FFFF0000FEFF0000FFFF0000C2
:10575000FFFF0000FFFF000000000000FFFF00004F
:1057600000000000FFFF000000000000FFFF00003D
:1057700000000000FFFF0000FEFF0000FFFF000030
:10578000FFFF0000FFFF0000FFFF0000FFFF000021
:04579000FFFF000017
:020000040100F9
:101F0000FFFFFF00FFFFFF00FFFFFF00FFFFFF00DD
:101F1000FFFFFF00FFFFFF00FFFFFF00FFFFFF00CD
:101F2000FFFFFF00FFFFFF00FFFFFF00FFFFFF00BD
:101F3000FFFFFF00FFFFFF00FFFFFF00FFFFFF00AD
:101F4000FFFFFF00FFFFFF00FFFFFF00FFFFFF009D
:101F5000FFFFFF00FFFFFF00FFFFFF00FFFFFF008D
:101F6000FFFFFF00FFFFFF00FFFFFF00FFFFFF007D
:101F7000FFFFFF00FFFFFF00FFFFFF00FFFFFF006D
:101F8000FFFFFF00FFFFFF00FFFFFF00FFFFFF005D
:101F9000FFFFFF00FFFFFF00FFFFFF00FFFFFF004D
:101FA000FFFFFF00FFFFFF00FFFFFF00FFFFFF003D
:101FB000FFFFFF00FFFFFF00FFFFFF00FFFFFF002D
:101FC000FFFFFF00FFFFFF00FFFFFF00FFFFFF001D
:101FD000FFFFFF00FFFFFF00FFFFFF00FFFFFF000D
:101FE000FFFFFF00FFFFFF00FFFFFF00FFFFFF00FD
:101FF000FFFFFF00FFFFFF00FFFFFF00FFFFFF00ED
:00000001FF
